:020000040800F2
:10000000BC090020856A0008D16A0008D7010008F1
:1000100000000000000000000000000000000000E0
:10002000000000000000000000000000D16A00088D
:1000300000000000000000004F010008856C00086F
:10004000D16A0008D16A0008D16A0008D16A0008A4
:10005000D16A0008B9700008D1700008E970000882
:10006000D16A0008D16A0008D16A0008D16A000884
:10007000D16A0008D16A0008D16A0008D16A000874
:10008000D16A0008D16A0008D16A000800000000A7
:10009000D16A0008D16A0008D16A0008D16A000854
:1000A000D16A0008D16A0008D16A0008D16A000844
:1000B000D16A0008D16A0008D16A00080000000077
:1000C000D16A000810B5064C2378002B07D1054BE8
:1000D000002B02D0044800E000BF0123237010BDB4
:1000E000BC09002000000000E83A0108084B10B5E8
:1000F000002B03D00749084800E000BF0748036809
:10010000002B00D110BD064B002BFBD09847F9E720
:1001100000000000C0090020E83A0108BC070020E8
:1001200000000000EFF3108072B6704780F3108873
:1001300070472D4A1368012B03D0012313602B4A0B
:1001400010602B4A11602B482B4901607047EFF378
:10015000108272B62448016800291DD00021016078
:100160002248016800290AD0EFF30981203900688C
:100170000160F0C144464D4656465F46F0C11C49F9
:1001800009680968F0C9F0B4F0C9A046A946B246AA
:10019000BB46F0BC81F3098882F3108804204042FA
:1001A0000047134908601149002008600E490120EA
:1001B0000860124812490268114301600D480E4957
:1001C0000160C0460F4800680068C04680F3088898
:1001D00062B67047C046EFF3098000B504F03AFA02
:1001E00000BDEFF3058070472C2800202828002050
:1001F0002428002004ED00E00000001020ED00E0C5
:100200000000FF0008ED00E0024670B50A439207C7
:100210002AD11E4DEE0104C808C9541B9443344032
:1002200017D0D0B2D9B2401A2106014310D190B2F2
:1002300099B2401A210401430AD110021902000A9E
:10024000090A401A2102014302D1100E190E401A68
:1002500070BD9A42DFD010BA19BA884201D9012084
:1002600070BD0020C04370BD02780B7801300131B1
:10027000002A09D09A4207D102780B780130013167
:10028000002A01D09A42EFD0D01A70BD01010101BD
:10029000002243088B4274D303098B425FD3030AC5
:1002A0008B4244D3030B8B4228D3030C8B420DD3D8
:1002B000FF22090212BA030C8B4202D31212090266
:1002C00065D0030B8B4219D300E0090AC30B8B42A4
:1002D00001D3CB03C01A5241830B8B4201D38B0352
:1002E000C01A5241430B8B4201D34B03C01A5241F7
:1002F000030B8B4201D30B03C01A5241C30A8B423A
:1003000001D3CB02C01A5241830A8B4201D38B0224
:10031000C01A5241430A8B4201D34B02C01A5241C8
:10032000030A8B4201D30B02C01A5241CDD2C3093A
:100330008B4201D3CB01C01A524183098B4201D3B6
:100340008B01C01A524143098B4201D34B01C01AA1
:10035000524103098B4201D30B01C01A5241C30819
:100360008B4201D3CB00C01A524183088B4201D388
:100370008B00C01A524143088B4201D34B00C01A74
:100380005241411A00D20146524110467047FFE7E0
:1003900001B5002000F0F0F802BDC0460029F7D0FA
:1003A00076E7704703460B437FD4002243088B4215
:1003B00074D303098B425FD3030A8B4244D3030BEC
:1003C0008B4228D3030C8B420DD3FF22090212BAB1
:1003D000030C8B4202D31212090265D0030B8B422D
:1003E00019D300E0090AC30B8B4201D3CB03C01A17
:1003F0005241830B8B4201D38B03C01A5241430BF2
:100400008B4201D34B03C01A5241030B8B4201D3E1
:100410000B03C01A5241C30A8B4201D3CB02C01A4C
:100420005241830A8B4201D38B02C01A5241430AC4
:100430008B4201D34B02C01A5241030A8B4201D3B3
:100440000B02C01A5241CDD2C3098B4201D3CB015A
:10045000C01A524183098B4201D38B01C01A524109
:1004600043098B4201D34B01C01A524103098B420D
:1004700001D30B01C01A5241C3088B4201D3CB00F8
:10048000C01A524183088B4201D38B00C01A5241DB
:1004900043088B4201D34B00C01A5241411A00D28B
:1004A00001465241104670475DE0CA0F00D04942F4
:1004B000031000D34042534000229C4603098B4264
:1004C0002DD3030A8B4212D3FC22890112BA030AEC
:1004D0008B420CD3890192118B4208D3890192116E
:1004E0008B4204D389013AD0921100E08909C309F3
:1004F0008B4201D3CB01C01A524183098B4201D3F5
:100500008B01C01A524143098B4201D34B01C01ADF
:10051000524103098B4201D30B01C01A5241C30857
:100520008B4201D3CB00C01A524183088B4201D3C6
:100530008B00C01A5241D9D243088B4201D34B00E1
:10054000C01A5241411A00D20146634652415B1023
:10055000104601D34042002B00D549427047634604
:100560005B1000D3404201B5002000F005F802BD49
:100570000029F8D016E770477047C0468446101C23
:1005800062468C46191C634600E0C0461FB501F068
:1005900007FA002801D40021C8421FBD10B501F0A0
:1005A0005BF94042013010BD10B501F0F9F90028A7
:1005B00001DB002010BD012010BDC04610B501F0C8
:1005C000EFF9002801DD002010BD012010BDC0465C
:1005D00010B501F081F9002801DC002010BD0120D8
:1005E00010BDC04610B501F077F9002801DA0020EF
:1005F00010BD012010BDC046002B11D1002A0FD123
:10060000002900D1002802D00021C943081C07B4EA
:10061000024802A14018029003BDC0465DFFFFFFE3
:1006200003B4684601B5029800F050F8019B9E465D
:1006300002B00CBC7047C046F0B54F464646C0B449
:100640001604360C9946330005042C0C070C150CC7
:1006500063437E436F4365431C0CAD1964199C468C
:10066000A64203D980235B02984647446346250C83
:10067000EF191D044B464A4343432D0C24046419CF
:100680009918C91920000CBC90469946F0BDC04687
:1006900070B500220C4B04000D00FFF7A3FF0028EB
:1006A00004D12000290001F0B3FF70BD064B0022E9
:1006B0002000290001F058FC01F0AAFF80231B064E
:1006C0009C466044F1E7C0460000E041F0B54D466D
:1006D000564644465F46F0B4924683B004000D008F
:1006E00099468B422FD82CD04946504602F0B2F89A
:1006F00029000600200002F0ADF8331A9846203B8E
:100700009B4600D574E053465A4693401F0053461B
:10071000424693401E00AF4229D826D05B46A41B18
:10072000BD41002B00DA79E0002200230092019302
:1007300001235A469340019301234246934000937C
:1007400019E08242D0D900220023009201930C9B31
:10075000002B01D01C605D600098019903B03CBC87
:1007600090469946A246AB46F0BDA342D6D9002298
:100770000023009201934346002BE8D0FB07720848
:100780001A4346467B080EE0AB4201D1A2420CD888
:10079000A41A9D41012024196D410021013E241815
:1007A0004D41002E06D0AB42EED9013E24196D41D9
:1007B000002EF8D15B460098019900196941002B81
:1007C00022DB2B005A46D3402A004446E2401C005C
:1007D0005B461500002B2CDB26009E4033002600D4
:1007E0004746BE403200801A994100900191AEE721
:1007F000424620239B1A5246DA40414613004A469D
:100800008A4017001F4382E7424620239B1A2A0092
:1008100046469A402300F3401343D5E7424620233F
:1008200000219B1A0022009101920122DA400192DC
:1008300082E74246202326009B1ADE402F00B44662
:10084000974066463B003343C9E7C046F8B54A02C5
:100850004E0043024400240EC50F9B09360EC90FFB
:100860009209FF2E00D183E001204140A01BA94244
:100870005CD0002800DC95E0002E1CD1002A00D0BE
:1008800081E05A0704D00F221A40042A00D0043312
:100890005A013BD50134FF2C00D191E001209B018E
:1008A0005B0AE4B205405B02E4055B0AED07234303
:1008B0002B431800F8BDFF2CE3D08021C9040A4364
:1008C0001B2800DD90E016002021C640081A824057
:1008D000511E8A4132439B1A5A0115D59B019E092C
:1008E000300001F099FF0538864084426CDC041B1F
:1008F000330020200134E340041BA640721E9641C1
:1009000000243343BDE70D005A07BCD1DF080123A3
:100910001D40FF2C33D1002F00D190E08022D20364
:1009200013003B435B025B0AFF24BCE700284FDD5A
:10093000002E2ED0FF2CA4D08025ED042A431B28A6
:1009400000DD97E016002025C640281A8240501E80
:10095000824132439B185A01D5D50134FF2C6DD00A
:1009600001227B481A405B08034013430D0088E7CF
:10097000002A00D07AE777E7031EC5D100257B0265
:100980005B0AE4B28FE701380028A4D0FF2C97D18E
:1009900077E7002A00D174E701380028DAD0FF2C6D
:1009A000CDD16EE7002821D1601CC0B2012858DDEE
:1009B00080279E1AFF0437402FD0D61A0D008FE7EC
:1009C00001231D4000236EE7624B241A334058E791
:1009D000002851D1601CC6B2012E33DDFF282DD076
:1009E0009B185B0804004CE7012274E7002C1AD026
:1009F000FF2E1FD08024E404404223431B2800DD47
:100A000096E01D002024C540201A8340581E8341D3
:100A10002B43D31A34000D005EE7002E00D05FE7B1
:100A200000250024ABE7002B44D0C0430028F0D0C1
:100A3000FF2EE3D11300FF240D0022E70D00FF2459
:100A4000002330E7002C5DD1002B7DD0002A00D19F
:100A500017E79B185A0100D456E73E4A040013409A
:100A60000FE7002C1ED1002B2FD1002A65D01300D8
:100A70000D0006E701226DE7002C1FD1002B59D095
:100A8000C04300280BD0FF2E4FD01B285EDC1D007A
:100A90002024C540201A8340581E83412B439B18B5
:100AA000340058E7002B1CD1002A49D013000D0058
:100AB000FF24E6E6130034000D00E2E6FF2E34D0FA
:100AC0008024E40440422343DFE7002A00D1D8E633
:100AD0008027981AFF04074000D14DE7D31A0D0074
:100AE000CFE6FF24002A00D1CBE68020DB08C0033C
:100AF000034204D0D208024201D113000D00DB00F2
:100B0000FF24BEE6002B10D0FF24002A00D1B8E657
:100B10008020DB08C003034203D0D208024200D188
:100B20001300DB000D00FF24ABE61300FF24A8E652
:100B300001236EE713003400A3E6002700251EE71B
:100B400080270025FF03E9E613009AE60123A6E7C4
:100B5000FFFFFF7DFFFFFFFB70B5041E28D001F0F3
:100B60005BFE9E231B1A962B0ADC9622D21A944017
:100B70006202520AD8B25202520AC005104370BD36
:100B8000992B18DC9922D21A9440114A224061070D
:100B900004D00F210C40042C00D00432510103D5A5
:100BA0000B4B1A409F231B1A9201520AD8B2E2E75C
:100BB00000200022DFE705222500121AB921D540C6
:100BC0002200C91A8A40541EA2412C001443DCE7BB
:100BD000FFFFFFFBF8B556465F464D464446F0B46E
:100BE0000F00FD0FAA4609037C002E005F00450F91
:100BF000490A7F0D2943C5001803BC46400A570F18
:100C0000640DDB0F3843D2009A4500D1AAE0664656
:100C1000A61B002E00DCFFE06346002B39D1030049
:100C2000134300D0D9E06B0709D00F232B40042BCE
:100C300005D02B1DAB42AD416D4249191D000B0281
:100C400000D482E0CA4B01349C4200D1FEE00A008D
:100C50005646C84BED081A4050076405520205433A
:100C6000120B640D002112030B0D1B056405120B02
:100C70001A436308C04CF60714401C436400640820
:100C80003443280021003CBC90469946A246AB461E
:100C9000F8BDB74B9C42C6D080231B041843382EA6
:100CA00000DDEBE01F2E00DD1EE120239B1B9C4698
:100CB00003006746BB40984613004746F3403B435A
:100CC0006746BA40571EBA4113430200F240EB1A7E
:100CD0009D42B6411D008A1A7642911B0B0231D506
:100CE0004A02560A002E00D1B4E0300001F094FD13
:100CF0000300083B1F2B00DDB5E020222900D21A9B
:100D0000D1409E400A009D4032439C4200DDB1E04C
:100D10001C1B631C1F2B00DDD5E0202114002800C4
:100D2000C91A8C40D8408D400443DA40681E854182
:100D300011002543002476E74146314300D134E2D7
:100D4000310045466B0700D06FE756464807ED086F
:100D5000C9080543864B9C4235D00A036405120B33
:100D6000640D7FE76346E31A9B46002B00DC8BE0B3
:100D70006746002F3CD07E4FBC4200D153E780270E
:100D80003F0438435B46382B00DCF7E00243501E3B
:100D900082410020D2B253194218AB4289411D0052
:100DA000494289180B02CDD5714B01349C4200D1C8
:100DB0003DE101206F4A6B080A4028401843D507DF
:100DC000054351082FE72B000B4300D1CBE18023D3
:100DD0001B030B431A03120B44E7013E002E6DD197
:100DE000AE1AB5429B41091A5B42C91A350075E734
:100DF0000700174300D116E701235B429C46E344FA
:100E00005B46002B00D0E0E0AA18AA429B410918DB
:100E10005B4259181500C5E7002E75D1661C760592
:100E2000760D012E00DCF3E0AE1AB0464545BF4119
:100E30000E1A7F42F61B370200D48FE0551BAA42E0
:100E4000B641411A76428E1B9A464BE7564600221F
:100E5000002507E7280001F0DFFC20300300083BF5
:100E60001F2B00DC49E72A002838824000259C42DD
:100E700000DC4DE73F49E41A1140D4E60243501E1E
:100E80008241D3B2002222E7002B00D0F3E0631CA2
:100E90009C465B055B0D012B00DC9FE0344B9C45C1
:100EA00000D1C3E0AA180918AA4280414042411863
:100EB000CD075208154349086446B4E62C4B9C42C2
:100EC00000D0ECE6AFE611001F3CE1400C00202B07
:100ED00000D17FE04021CB1A9A4015436A1E95410C
:100EE0000021254300242DE733000700203BDF408D
:100EF0003B00202E70D04027BE1BB0400243501E46
:100F0000824113430022E2E6002C4FD0184CA44546
:100F100000D1ABE08024240476422143382E00DD4A
:100F2000DFE01F2E00DD43E12027BC1BA1460C00A3
:100F30004F46BC40A0462C004746F4403C434F4639
:100F4000BD406F1EBD41F1402C43151BAA4292418A
:100F5000411A5242891A64469A46BFE641464546BE
:100F6000314300D0BEE6002600240025F2E6C0464C
:100F7000FF070000FFFF7FFFFFFF0F801F2B59DCE3
:100F80002027FF1ABC46070063469F405B46B946D0
:100F90001700DF40B8464F4643461F4363469A401A
:100FA000531E9A415B463A43D840F4E60C002C436A
:100FB0005CD0F643002E55D1551BAA42A441411ADC
:100FC0006442091B9A46644688E6964FBC4200D0AC
:100FD000D8E628E6002280E700208FE70B002B43AD
:100FE000002C00D0C2E0002B00D101E1030013432C
:100FF00000D118E6AB18AB42B64109187642711819
:101000000A0200D409E1884A1D00114064460AE63C
:10101000002C5BD10E002E4300D08AE0010011436A
:1010200000D1C2E0010015009A46FCE564460021AB
:1010300000258FE620235B429C46DC446346070084
:10104000DF405B46BC46202B00D1ACE040235F462E
:10105000DB1B98400243501E8241634613431A0033
:10106000002098E66F4CA44500D057E7010015001A
:1010700064469A46D7E5002C39D10C002C436ED03B
:10108000DB43002B1AD0674CA44568D0382B00DD19
:10109000A4E01F2B00DDAEE020240F00E41AA740DF
:1010A000B9462F00DF40B846A3464F464446274383
:1010B0005C46A5406C1EA541D9403D43AD18954204
:1010C0009B4109185B42591864466BE60C002C439F
:1010D00015D1010011437BD0010015009A46514CF7
:1010E000A1E50D43691E8D410021ECB22DE74D4C69
:1010F000A44534D0802424045B422143C6E7040085
:1011000014434ED0ED084C072C438025C9082D030D
:10111000294208D0C6082E4205D1D2084107114302
:101120000C009A463100620FC900E50011433D4CA6
:1011300079E50600164300D175E5AE1AB04645457F
:10114000BF410E1A7F42F61B370200D4F4E5551B4F
:10115000AA42B641411A7642891B9A4663E50100CC
:10116000150064465FE5002200257BE5002B3BD09F
:101170000300134315D0ED084B072B438025C90806
:101180002D03294207D0C4082C4204D141070B008B
:101190002100D2081343C9005A0F1143DD00214C2E
:1011A00041E5204C3FE5002054E700260025D1E52D
:1011B00034000F00203CE7403C00202E2BD040277D
:1011C000BE1BB1400D43691E8D4100212C43BCE67E
:1011D000802100260903134C0025BBE50D43691E41
:1011E0008D410021EDB269E7010015000D4C1AE5B3
:1011F0000100150017E51C000F00203CE7403C00F3
:10120000202B0CD04027FB1A99400D43691E8D41BD
:101210000021254352E70021D4E71D0092E500217B
:10122000F3E7C046FF070000FFFF7FFFF0B556461B
:101230004D4644465F46F0B41D000E034C00CB0FF4
:1012400087B0070092468146360B640D98466AD0F7
:101250006D4B9C4235D08022430F12041343F6009D
:101260001E43C3009946694B00279C4600236444F3
:1012700002932B0368001B0BED0F51469B46400D5C
:10128000009500D178E0604B98426CD05B46DA0064
:101290004B0F802109040B4313439B465346D9004F
:1012A0005A4B9C46002360444246201A6A409246AC
:1012B00001901F430F2F00D9B0E05548BF00C0591F
:1012C0008746374300D088E0002399460233082739
:1012D00000260293CDE74346B34649460093029B5E
:1012E000009A9246022B00D0BFE100215346012212
:1012F000002689461A40444B002136030C0D240574
:10130000360B2643434C1B0526401E437600D2076E
:10131000760816434846310007B03CBC90469946D3
:10132000A246AB46F0BD330003434FD0002E00D1A0
:10133000BCE1300001F070FA03000B3B1C2B00DD18
:10134000ADE11D220100D31A08393A008F408E40CA
:10135000DA40B9461643304B00279C4600236044D0
:101360004442029385E753465A4613432CD1002347
:1013700000219B46023397E70B4320D05B46002BAE
:1013800000D19EE1584601F047FA03000B3B1C2BAD
:1013900000DD8FE102005946083A91408B461D213D
:1013A000CB1A5146D9400B0059460B4351469B4638
:1013B0009140194B9C4660444042002374E700234F
:1013C00000219B4601336FE703236DE70023994615
:1013D00001330427002602934BE703230C270293D3
:1013E00047E70122D51A382D00DCB0E153461A40F8
:1013F00000210023002689467EE7002380269946A7
:1014000000223603004B77E7FF07000001FCFFFFD7
:101410003C230108FFFF0F80F30300005E4500D965
:1014200072E100D16DE1019B4D46013B0193002328
:10143000340002935B461E020B0E1E430B02039305
:10144000330C994633041B0C494620000093FEF7E9
:101450001FFF009B37004343060049462000984683
:10146000FEF79CFF2C0C09040C43A04509D9E41994
:10147000731EA74200D95CE1A04500D859E1023EA5
:10148000E4194346E41A49462000FEF701FF030031
:10149000009A80465343494620009B46FEF77EFF54
:1014A0002A040904120C0A4393450DD94346D21964
:1014B000013B974200D93AE1934500D837E1022336
:1014C0005B429C46D219E0445B46D21A434636043E
:1014D00033439B460399180C0B0C1D00059309041C
:1014E0005B46090C0C001B041B0C4443049159433C
:1014F0006B4368431B190D0CEB189C4203D98024E5
:101500006402A44660441C0C09041B04090C201846
:101510005D18824200D2DEE000D1D7E0161A029BAD
:101520009C465D1BAC459B415B42F61AB74200D11D
:1015300006E149463000FEF7ABFE009B0400434342
:10154000494630009846FEF729FF2E0C09040E4349
:10155000B04509D9F619631EB74200D9F3E0B0458A
:1015600000D8F0E0023CF6194346F31A4946180049
:101570000293FEF78DFE009B060043434946029806
:101580009846FEF70BFF2D0409042D0C0D43A845CA
:1015900009D9ED19731EAF4200D9D6E0A84500D88D
:1015A000D3E0023EED192404210043463143049E5A
:1015B000059A3000ED1A0B040C0C1B0C58436643C3
:1015C000534354439A19030C9B189E4203D980221B
:1015D0005202944664441A0C00041B04000C1419B3
:1015E0001B18A54250D34DD001231943964A019BA5
:1015F00094466344002B00DCF3E64A0709D00F222F
:101600000A40042A05D00A1D8A42894149428B4476
:1016100011005A46D20108D55A468C4B1A409346BF
:101620008022D2009446019B6344894A934200DDA4
:101630005BE65A46C9085007084356025146012244
:101640005B058146360B5B0D0A4055E680231B0384
:101650001E4211D05A461A420ED15E461E43360330
:10166000360B2A0089467B4B46E6032B00D1E1E08E
:10167000012BBBD11A40BBE61E433603360B424654
:10168000744B39E6002BB1D07D194A1EAF4252D9B6
:101690001100A542A8D1039A9A42A5D1A6E703005A
:1016A0003E00283B9E400023994654E601F0B4F8E2
:1016B000203041E603005246283B9A4000219346E1
:1016C00077E6504601F0A8F820305EE6029B00263F
:1016D000AB4200D323E7039E0299B4466144884697
:1016E000B045B6415B467642F619B218013B02910D
:1016F000974213D290424FD800D18EE0161A9B46E3
:101700000DE7894500D28EE674084B46F607350092
:101710005B081D434B46DB0702938BE69742EDD1F6
:101720000399029CA142E5D93E1A9B46F7E69846EA
:10173000CAE61E00A5E6AC423ED874D0110053E7BD
:101740000121494252E71C000EE71E002BE71F2D26
:101750003CDC20230A0058465B1B9840EA40994035
:101760000243481E81415E461143EE404B0709D0BB
:101770000F230B40042B05D00B00191D99429B41F0
:101780005B42F61833023CD55346012200211A4031
:10179000002601238946AFE502235B429C46039C59
:1017A000E344A446029B63449846A045B641764272
:1017B000F6190293B218B1E603988A1E41008142DD
:1017C000B6417642F619AD19039161E71F225242E4
:1017D000D31A5A46DA401300202D29D04022584609
:1017E000551BA8400143481E814107200B43184068
:1017F0000026002809D00F2200261A401900042ACA
:10180000BBD10B0070077602360BDB080343994609
:10181000012253461A4000236EE502998D42BBD83F
:101820009B4600267BE603989842C5D3110032E719
:101830000020D7E780265B4636031E433603360B6F
:10184000009A8946034B57E5FF030000FFFFFFFEA8
:10185000FE070000FF070000F0B55F4656464D4604
:101860004446F0B41F035C00DB0F9A46194B0E038D
:101870004D00C90F8046360B6D0D8B4691463F0BD0
:10188000640D9D4219D0134B9C421BD00123A542ED
:1018900006D018003CBC90469946A246AB46F0BD27
:1018A000BE42F6D1C845F4D1D34510D0002DF0D1B9
:1018B000304303005A1E9341EBE7310001230143FB
:1018C000E7D1E0E73A430123002AE2D1DEE7002333
:1018D000DFE7C046FF070000F0B55F4644465646C6
:1018E0004D46F0B41F033C0B2C4F0E034D00A34696
:1018F0005C008446360B6D0DC90F9046640DDB0FFE
:10190000BD422BD0254FBC422ED0002D0ED13043EE
:101910000700814678427841002C17D15F463A4350
:1019200014D14B460020002B0AD006E0002C02D137
:101930005846024301D099421AD001234842184325
:101940003CBC90469946A246AB46F0BD0028F2D07A
:1019500058425841012240421043F1E73700074303
:10196000D0D002204042EBE75F461743CDD0F8E7E6
:10197000A542E2DC05DB5E45DFD808D000205E45ED
:10198000DED248424841012340421843D8E7C445CB
:10199000D3D80020C445F4D3D2E7C046FF070000E7
:1019A000F0B55F464D4644465646F0B41C03240B42
:1019B000A4462F4C0F034D005E00C90F80463F0B1D
:1019C0006D0D8B469146760DDB0FA54220D0284C3D
:1019D000A64222D0002D12D1384344424441002E69
:1019E00020D0002C0DD05C42634101245B421C439B
:1019F00020003CBC90469946A246AB46F0BD002E66
:101A000017D05B4519D05B465C4201231C43EFE7CE
:101A1000390002240143EBD1D9E761460224114386
:101A2000E6D1D7E761460A43DBD100240028DFD0A6
:101A3000E9E761460A43E4D1E5E7B54203DD012267
:101A40005C421443D4E7B542CDDB6745DBD809D00F
:101A500000246745CCD259464C4261410124494299
:101A60000C43C5E7C845CED80024C845F3D3BFE72B
:101A7000FF070000F0B55F4656464D464446F0B4B9
:101A80000D0399464E002B0B87B007009246804607
:101A90009B46760DCC0F002E69D06D4B9E4235D003
:101AA0005B468022DD001204430F13432B439B4609
:101AB000C3009846674B00279C4600236644019369
:101AC0004A4615035000D20F53462D0B400D914648
:101AD00000D176E05E4A90426CD080225B0F120407
:101AE00013435C4AED0094461D4353460022DB003D
:101AF000604449463618701C6140029017430F2F0E
:101B000000D9AFE05448BF00C759BF465B461F43EA
:101B100000D088E000239B469846023308270193B3
:101B2000CEE74946022A6AD0032A00D109E2012AF7
:101B300000D0BBE111400022002300259046CCB22A
:101B400000212D030A0D12052D0B1543434A1B05D9
:101B500015401D436D00E4076D08254340462900EC
:101B600007B03CBC90469946A246AB46F0BD034345
:101B700052D05B46002B00D18AE1584600F04CFE63
:101B800003000B3B1C2B00DD7BE11D22D31A3A0026
:101B900001005D46DA4008398D4013008F402B4329
:101BA0009B46B8462E4B00279C4600236044464285
:101BB000019385E752462A432CD1002500230222B7
:101BC00097E752462A4321D0002D00D154E1280046
:101BD00000F022FE03000B3B1C2B00DD46E11D2123
:101BE000CB1A51460200D9405346083A95409340DB
:101BF0000D431B4A944660444042002279E7012489
:101C000000220C40124B0025904699E70025002346
:101C100001226EE703226CE700239B4698460133BE
:101C2000042701934CE703230C27019348E7002383
:101C30008025984600242D03054B81E75D464346E9
:101C4000019A6FE75D4643462100019A6AE7C04664
:101C5000FF07000001FCFFFF7C230108FFFF0F804E
:101C6000F30300004246120C91461A0C9446424679
:101C700017044A461B041B0C5A43604690464A46CA
:101C800042431000039262461C003F0C7A437C439F
:101C900042440192220C9246019A5244904506D940
:101CA0008246802040028046C24450460390100C79
:101CB000049048462404240C1204121905922A0C9C
:101CC0002D042D0C68432C00824648467C4350432B
:101CD0008146200C8046574357444744BA4503D9B0
:101CE000802040028046C144380C3F04B846484436
:101CF0002404240C01900498A044404404905846C5
:101D0000000C814658460404200C824607004846D1
:101D10005F434C46434360466043644683465046B7
:101D20004443380C8446E4186444A34203D9802316
:101D30005B029C46E34448463F04230C3F0C2404CA
:101D4000E419574668436F4384464D465046554311
:101D50004243380C814662444A445B44944503D96B
:101D6000802040028446654403983F0483460498DB
:101D70003F0C8446E344C345804140428246100400
:101D800084460198674484466744A344BC46A345FF
:101D9000A4419946D44464428742BF41D44580411E
:101DA000E144A04699459B417F424042C8440743D5
:101DB000120CBA18A045A4415F423B006442234381
:101DC000D71843467D19DB0D6D021D435B465A0251
:101DD000059B1A43531E9A415B46DB0D1A4343464B
:101DE0005B021343EA0107D501225C081340234339
:101DF000EA07029E13436D08574AB218002A4BDDCA
:101E0000580709D00F201840042805D0181D984203
:101E10009B415B42ED180300E80104D54F4A154091
:101E20008022D200B2184E48824200DDE7E601244B
:101E3000DB08680718436D02530580462D0B5B0DC8
:101E40000C407DE6802259461203114208D015420B
:101E500006D115432D0398462D0B4C46414B6FE69A
:101E60005D4615432D032D0B3E4B69E60300554699
:101E7000283B9D400023BCE6504600F0CDFC2030BE
:101E8000A8E60300283B9F400023BB46984689E60E
:101E900000F0C2FC203073E60124A61A382E07DDBC
:101EA00000220C4000230025904649E6029EA3E74D
:101EB0001F2E20DC20222C001800921BF0409440A2
:101EC00093400443581E83411C43F540630709D0E7
:101ED0000F232340042B05D023001C1D9C4292415C
:101EE0005242AD182B021FD5012400220C400123C1
:101EF0000025904624E61F202C004042821AD44040
:101F0000202E1CD04022961BB5402B43581E8341E7
:101F10000720234318400025002809D00F22002560
:101F20001A401C00042AD8D1230068076D022D0B2B
:101F30000124DB08034398460C40002300E60025FB
:101F4000E3E780220124120315432D0398462D0B4D
:101F50000C40044BF4E5C046FF030000FFFFFFFE0A
:101F6000FE070000FF070000F0B557464E46454605
:101F7000E0B40E001100F20F9246C500420F1803A4
:101F800037037400400A4E0F7F0A3043CF4E174389
:101F90005A00640D520DDB0FC900B24200D1E5E0DA
:101FA00001267340A61AB446534500D1AFE0002E77
:101FB00000DC0DE1002A3AD103000B4300D0E4E03D
:101FC0006B0709D00F232B40042B05D02B1DAB42F0
:101FD000AD416D427F191D003B0200D488E0BB4B30
:101FE00001349C4200D110E13A00B94B51461A40ED
:101FF00001235007ED08520264050543120B640DDE
:102000000B400021280012030D0D120B64052D0555
:1020100015436208AF4CDB072C401443640064088E
:102020001C4321001CBC90469946A246F0BDA74B1C
:102030009C42C5D080231B0418436346382B00DD27
:10204000FDE01F2B00DD30E1624620239B1A0200D9
:102050009A40664690460A009940F24046464B1E1A
:1020600099413243114363460200DA40691A8D42B6
:102070009B410D00BA1A5B42D71A3B0235D57A0252
:10208000530A98464346002B00D1C4E0404600F076
:10209000C3FB0300083B1F2B00DDC5E02022290005
:1020A000D21A4746D1409F400A009D403A439C4285
:1020B00000DDC0E01C1B631C1F2B00DDE4E02021C1
:1020C00014002800C91AD8408C408D400443DA40DF
:1020D000681E854117002543002471E74246634688
:1020E0001A4300D14CE2674645466B0700D069E7CA
:1020F000012351467807ED08FA080B400543734960
:102100008C4238D012036405120B640D79E7002E5F
:1021100000DC9AE0002A47D06C4A944200D14FE795
:102120008022120410436246382A00DC08E1014391
:10213000481E81410022C9B24919D219A942BF41A2
:102140000D007F42BF183A0200D442E15F4A0134D9
:10215000944200D14EE101205D4A69083A4028408E
:102160000843D507054357089A4629E706000E435A
:1021700000D017E714E72900114300D1F9E18021CD
:1021800009030A431203120B3BE701235B42984603
:10219000C4446346002B72D1691A8D429B413F1A99
:1021A0005B42FF1A0D0068E702000A4300D107E70F
:1021B000012252429046C4446246002A00D0E6E022
:1021C0006918A942B6413F187642F7190D00BAE7DF
:1021D000002E00D080E0621C5205520D012A00DC66
:1021E000F9E06A1A91464D45B6413A1A7642921B79
:1021F0009046120200D499E04D1BA9428941C71BA9
:1022000049427A1A90469A463CE7524601230025F5
:1022100013400022F5E6280000F0FEFA203003000B
:10222000083B1F2B00DC39E72A00283882400025B4
:102230009C4200DC3EE7264FE41A1740C0E601430B
:10224000481E81410022C9B210E7002E00D0F1E003
:10225000621C94465205520D012A00DCA0E01B4A84
:10226000944500D1C5E06918A94292413F185242F5
:10227000D2194908D5070D4357086446A0E6134B09
:102280009C4200D0D9E69BE611001F3CE1400C00C7
:10229000202B00D180E04021CB1A9A4015436A1EC2
:1022A00095410027254300241FE763460200203B99
:1022B000DA406346202B71D0402366469B1B984032
:1022C0000143481E814111430022CFE6FF07000071
:1022D000FFFF7FFFFFFF0F80002C48D0CA4CA242B7
:1022E00000D1A2E07442A1468024240427434C4636
:1022F000382C00DDDBE01F2C00DD44E14E462024BD
:10230000A41B3E00A640A246B0464C462E00E64026
:10231000B4464646644626435446A5406C1EA54135
:1023200034002C434D46EF400D1B28E04A464346FF
:102330004D461A4300D0A5E6002300240025DEE622
:102340001F2A5ADC66462022921B060096409146C0
:10235000B04662460E00D640424616434A46914079
:102360004A1E9141020060463143C240E4E63C000F
:102370002C435AD0F443A146002C52D14D1BA94204
:102380008941C71B49427F1A14009A4675E69E4A46
:10239000944200D0C7E613E600227FE700208FE7D3
:1023A000002C00D0C8E03B002B4300D10FE103001C
:1023B0000B4300D104E66918A9429B413F185B42D8
:1023C000DF193B0200D41AE1904B0D001F40644618
:1023D000F6E59A4689E63A002A43002C5CD1002AA9
:1023E00075D102000A4300D1CAE007000D009A46E9
:1023F000E6E564460022002581E662460600203AB2
:10240000D6406246B046202A00D1B7E04022664658
:10241000921B904001434246481E814111430022D5
:102420008AE6794CA24200D061E707000D00140053
:102430009A46C5E5002C41D13C002C4378D0F443AA
:10244000A146002C20D0704CA24271D04C46382CB2
:1024500000DDB2E01F2C00DDBCE02026341BA246CC
:102460003C005646B4404E46A0462C00F440A446DC
:10247000444666463443A4465446A54064466E1E10
:10248000B54125434C46E7406D188D4289413F18C0
:102490004942CF19140056E6002A2FD102000A4300
:1024A00000D184E007000D009A46574C88E53D4373
:1024B0006F1EBD41ECB200270D1B60E7524CA242DB
:1024C00036D0744280263604A1463743BEE7020068
:1024D0000A4300D174E56A1A90464545B6413A1A56
:1024E0007642921B9446120200D4F7E54D1BA94296
:1024F0008941C71B49427F1A9A4661E502000A4397
:102500003AD0ED087C072C438025FA082D032A4297
:1025100008D0C7082F4205D145072C003A009A463B
:10252000C9080C43670FD200E5001743364C47E556
:1025300007000D00140043E53A002A4343D002008F
:102540000A4319D0ED087C072C438025FA082D0397
:102550002A4207D0C6082E4204D147073C00320069
:10256000C9080C43D700620FE50017439A46264C72
:1025700026E50022002544E5234C21E5002049E71B
:1025800000230025BBE54C463E00203CE6404C467F
:10259000B446202C31D040244E46A61BB7403D43C4
:1025A0006C1EA54164462C4300270D1BE7E68022E4
:1025B00000231203144C0025A1E53D436F1EBD41CD
:1025C0000027EDB260E707000D000F4CF8E40700AC
:1025D0000D00F5E44E463C00203EF440A0464C463B
:1025E000202C0ED040244E46A41BA7403D436F1E16
:1025F000BD4144460027254346E70027CFE70D00AD
:1026000073E50027F2E7C046FF070000FFFF7FFFEA
:102610000B0330B5134D1A0B4B005B0DC90F002493
:10262000AB4211DD104CA34210DC80246403224332
:102630000E4CE41A1F2C0CDD0D48C31ADA401300AF
:102640005C42002900D11C00200030BD094BCC1891
:10265000FAE7E040084CA44663449A401300034361
:10266000EEE7C046FE0300001D0400003304000036
:1026700013040000FFFFFF7FEDFBFFFF70B5002894
:1026800030D0C317C4185C40C50F200000F0C4F858
:10269000174B184A1B1AD21A1F2A18DD164AD21ACB
:1026A0009440002224035B05240B5B0D00211000E5
:1026B00024030A0D1205240B1443104A1B05144071
:1026C0001C436400ED0764082C43210070BD210009
:1026D00091400A000B21081AC4405B052403240B17
:1026E0005B0DE3E70025002300240022DEE7C0465F
:1026F0001E0400003304000013040000FFFF0F80DD
:1027000070B5051E28D000F087F8154B154A1B1A26
:10271000D21A1F2A16DD2C00134A0025D21A944023
:102720005A052403240B520D002124030B0D240B06
:102730001B0523430D4C1205234013435B00280067
:10274000590870BD0B212C00081AC4409540240381
:102750005A05240B520DE7E700220024E4E7C046A7
:102760001E0400003304000013040000FFFF0F806C
:102770004200120E511C4302C9B270B55D0AC40F6B
:10278000012915DDE02189008C466D071B0B624491
:10279000002128000D0D2D052B431C4D52052B400B
:1027A000520813435B00E4075B082343190070BD24
:1027B000002A15D1002D1FD0280000F02DF80A287E
:1027C0001DDC0B232A001B1ADA401300020015320D
:1027D00095400F4A1B03121A52051B0B520DD7E7E7
:1027E000002D06D080221B0B120313436D07094AEC
:1027F000CEE7084A0023CBE700220023C8E7030006
:102800000B3B9D402B000025E3E7C046FFFF0F80F8
:1028100089030000FF0700001C2101231B049842CC
:1028200001D3000C10391B0A984201D3000A083961
:102830001B09984201D30009043902A2105C401818
:102840007047C046040302020101010100000000BC
:102850000000000010B5002903D1FFF7DDFF203094
:1028600002E0081CFFF7D8FF10BDC046014B1868F6
:102870007047C046D80900200B4A10B513680133D1
:10288000136001F0ADFB836C013B8364002B08D126
:10289000436C342283640823815C0B43835401F02E
:1028A000F1FB01F0B1FD10BDD809002070B5051E87
:1028B00015DBFA21FA268900FDF774FDB600704396
:1028C000310004002800FDF753FE7143054B08005A
:1028D0009C4631006044FDF765FD001970BD012084
:1028E0004042FBE7E70300000020704770B5094B4A
:1028F000094C9C420BD2E543ED18AD08AD006519BB
:10290000064B01E0636804349847AC42FAD104F006
:1029100041FF70BDD83A0108CC3A010821290008CE
:1029200000207047002070470020704770B5084BAA
:10293000084C9C420BD2E543ED18AD08AD0065197B
:10294000054B01E0636804349847AC42FAD170BD8E
:10295000CC3A0108BC3A010829290008142300B523
:1029600083B001930A3B0093C02300221B0104495A
:10297000044801F03BFB01F011FC03B000BDC04670
:10298000ED280008BC23010810B5FDF7CBFB04F0CF
:1029900091F900F06BFC01F019FE01F03FF9FFF72F
:1029A000DDFF01F019FE00F09FF801F0A5F900200D
:1029B00010BDC04610B5FFF7E7FF002010BDC046B0
:1029C000F8B5070001F00CFB002801D001F044FA33
:1029D000092001F051F84468061DB44203D113E008
:1029E0002468B44210D025000C3D0822390028008C
:1029F00000F01CFC0028F3D101F0F2FA00280BD003
:102A000001F036FA2800F8BD01F0EAFA0028FAD001
:102A100001F02EFA0020F6E72800F4E7F8B50400EC
:102A20000E00170000280ED00800FFF7C9FF051E92
:102A300009D120003200092101F02EF80020E782A0
:102A4000A5762583F8BD01204042FBE770B51D4DFA
:102A50002B68AB4224D12BE02B681C0059681A6804
:102A6000143C516059680A605B601B6001F0F4F926
:102A7000A36F002B01D020009847200001F0CAF876
:102A8000012816D001F0F4F93000FDF74FFBA06AE1
:102A900000F034FF200001F0A1F82B68AB4207D012
:102AA000FDF740FB2B680600AB42D5D1FDF73EFB9E
:102AB00070BD200001F032F801F0DAF93000FDF7C6
:102AC00035FBF5E71C28002070B5064D00242B5976
:102AD000002B00D098470434102CF8D1FFF7B6FF34
:102AE000F4E7C0465C0E002010B586B000220C4909
:102AF00004A800F0A7FD20230393013B0293802349
:102B0000DB00084C0193084B084A009304A90023FA
:102B1000200001F04DFA200001F040FB06B010BD8E
:102B2000C4230108DC0900205C0A0020C92A00082F
:102B300070B5040016000A0002211D0000F0ACFF71
:102B400023001433A68365720020A361636170BD06
:102B5000F0B5474680B4394B82B01B680400019140
:102B6000002B00D09847FDF7DDFAA68B0700002E5A
:102B70004CD1019B002B5BD001F032FA0663637AE3
:102B800005009846260001F083FA43461436002BD0
:102B900015D0012B1AD163699E4210D0180035223E
:102BA0001438A95C825C35208A4205D938E01A00C5
:102BB000143A125C8A4233D81B689E42F7D12B002C
:102BC000A26914331360AA61A3616E61019B002B9B
:102BD00009DD2E004C3601AA0021300001F0FAFB7D
:102BE000300001F071FB3800FDF7A0FA01F0A2F807
:102BF000286B002806D1124B1B68002B0ED020003A
:102C00009847002002B004BC9046F0BD013EA68368
:102C1000FDF78CFA0A4B1B68002BF0D10020F1E77E
:102C20002A00596814320A60A9615A606B61CDE7C5
:102C3000FDF77CFA02204042E4E7C0460C27002062
:102C4000082700200F4B70B51B680400002B00D034
:102C50009847FDF767FA230005006069143398422E
:102C600009D0143801F06CFA2800FDF75FFA01F082
:102C700061F8002070BDA38B28000133A383FDF70A
:102C800055FAF6E70427002070B5040015000A0085
:102C9000032100F001FF23001433A36163610123CA
:102CA000FF22A3830023657200202362A277E377CB
:102CB00070BDC046F0B54E4645465746E0B482B0BA
:102CC0000191060001F08CF90400FDF72BFA4A4B44
:102CD00080461B68002B01D03000984700232363F7
:102CE000336A9C4265D03523370099463525A14487
:102CF0001437B38B002B56D1019B002B67D0306A61
:102D0000625D435D9A4241D3737A20009A4601F096
:102D1000BFF95346002B13D0012B18D173699F4282
:102D20000ED01A00143A615D525D8A4205D932E034
:102D30001A00143A525D8A422DD81B689F42F7D17F
:102D40002300B26914331360A261B3616761019B10
:102D5000002B0ADD4C239A46A24401AA00215046CA
:102D600001F038FB504601F0AFFA4046FDF7DEF9BE
:102D700000F0E0FF206B002831D003000933B8D009
:102D800002B01CBC90469946A246F0BD4A460221BC
:102D900001F01CFAB8E72200596814320A60A161F8
:102DA0005A606361D3E7013BB38335233462E35C4C
:102DB000B377F37F40460133F377FDF7B7F90F4B55
:102DC0001B68002B15D0300098470020D8E702255B
:102DD0006D4240462563FDF7A9F92800D0E7FDF7CD
:102DE000A1F980464046FDF7A1F9044B1B68002B72
:102DF000E9D10020C4E7C0460C27002008270020A6
:102E000070B5040001F0ECF80500FDF78BF9224BDA
:102E100006001B68002B01D020009847236A9D42C2
:102E200032D1E37F013BDBB2E377002B27D135338F
:102E3000A27FEB5C9A4205D0220002211E322800BC
:102E400001F0C4F9230060691433984210D035238F
:102E500014382062C35CA377E37F0133E37701F08A
:102E60006FF93000FDF762F900F064FF00200AE01E
:102E7000A38B0133A38300232362FF33A3773000A6
:102E8000FDF754F9002070BD0124644230002C632A
:102E9000FDF74CF92000F6E70427002010B5FDF7F8
:102EA00041F9074A040013780133DBB21370054B74
:102EB0001B68002B00D098472000FDF737F910BDA4
:102EC000740E0020700E002010B5FDF72BF9074A94
:102ED00004001378013BDBB21370054B1B68002B19
:102EE00000D098472000FDF721F910BD740E002096
:102EF0006C0E002010B5FDF715F9034B1C78FDF79B
:102F000015F9E4B2200010BD740E0020F0B55F4644
:102F1000564644464D46F0B489B09B46149B040087
:102F20000E0017005B064ED5714B19001023149A42
:102F30001A40019203D0149A0F3B9A431492202313
:102F40000293149BDB0701D530230293149B9B074C
:102F50003CD5002F00DABDE02B230093149B5B07C8
:102F600036D4149B1B07DB0F5B010093002F31D07D
:102F7000002504ABB1469A46884603942E0009E02A
:102F80000F25424651463D40525D631E3F09CA54DB
:102F900014D026005B46741C0A2BF1D138000A219C
:102FA000FDF7FCF938000D000A21FDF771F94246E2
:102FB0005146525D631E071ECA54EAD13500A04631
:102FC0004E46039C0EE04B4B1900AFE700230093E5
:102FD000002FCDD104AB9A463023524613702F3BBD
:102FE00000259846139A4346904500DA1300129A3A
:102FF0001499D01A11220A421CD1009A002A5AD1DF
:10300000421E9446002800DC70E061462200202722
:10301000481C964200D917700132811A61180029A4
:10302000F7DC6246501ED2436146D2170A40801A2E
:103030000132A418009A002A44D1019A002A0CD126
:10304000421E002850DD029A2018A64200D92270A4
:1030500001348442F9D101204042984542DA424687
:103060009B1A3022E318A64200D9227001349C42F8
:10307000F9D1139A002A0DD01A00591C544602E0C7
:1030800001320131013DB24201D2635D13700B0088
:10309000002DF5DC002823DD202218189E4200D9DF
:1030A0001A7001338342F9D109B03CBC904699466D
:1030B000A246AB46F0BD002810DD821E94460128D2
:1030C000A3D11000A64202D96A46127822700138B4
:1030D0000134B2E72D237F42009349E70138F1E73D
:1030E0001800E1E72300C4E71000B6E71000A4E7EA
:1030F000882701087427010810B50400FFF7FAFEBD
:10310000002802D0044B1C6010BD00F069FF0028AD
:10311000F8D00463F8E7C046780E002070B5032AA3
:1031200027D983072FD1FF230B401C0223431E0402
:103130001E430F2A29D913000400103B1B09013339
:103140001B01C31826606660A660E6601034A342C7
:10315000F8D10F242240032A0CD9151FAD080135E0
:10316000AD001C005B1940C4A342FCD103242240E3
:1031700000E00300002A05D0C9B29A181970013383
:103180009342FBD170BD0300F6E70300E5E7C046BC
:10319000F0B5150004000F2A27D90B0003439B0745
:1031A00023D116000D000300103E3609013636010A
:1031B00084192F681F606F685F60AF689F60EF6859
:1031C0001035DF6010339C42F3D10F231A40891968
:1031D0001500032A09D904310B1F1D680434231F6D
:1031E000043A1D601500032AF5D80023002D04D0F1
:1031F000CA5CE2540133AB42FAD1F0BD30B5002ACB
:1032000013D0030002E00131002A0ED001330C7804
:103210005D1E2C70013A002CF5D1002A05D000214A
:103220009A18197001339342FBD130BD30B5002A92
:1032300017D005780B784C1CEB1A5BB2002B12D11F
:10324000411C8218002D0AD10BE00D782378EB1A6F
:103250005BB2002B07D101310134002D01D0914226
:10326000F3D1002030BD1800FCE7C0467047C046CF
:10327000F0B5444656465F464D46F0B4461887B012
:103280008846140004930590B04203D9C343012635
:10329000984676422278002A09D1B3E1864200D9C5
:1032A0000270627801300134002A00D18EE0252AB4
:1032B000F4D101239C4620239B4608239A46637839
:1032C000002104271022651C2D2B0FD02B2B11D091
:1032D000202B13D0232B16D0302B19D163462C0072
:1032E0001943C9B26378651C2D2BEFD11143C9B2C4
:1032F0002C00F7E73943C9B22C00F3E753461943D2
:10330000C9B22C00EEE75B461943C9B22C00E9E7CD
:1033100030277F42BC469C4467461A00092F20D8BC
:1033200000239C00E31801355B009B182A78303B92
:103330001400303C092CF4D914002E2C19D0220092
:1033400001246442A146FB241440682C31D01400AF
:10335000253CE4B2532C00D929E1B74FA4003C59D5
:10336000A7462A2B00D1FDE01C0001235B422E2C36
:10337000E5D16A786C1C9446303A092A38D8002581
:103380006246AF007D1901346D00AD182278303DE2
:103390001700303F092FF4D99446EA43D2179146DB
:1033A0004F4662462F402500FB24B9461440682C46
:1033B000CDD16C1C6D78AC46253DEDB2532D00D9B6
:1033C0000DE19E4FAD007D59AF461800059BC31A15
:1033D0004246002A04D0864213D80022013E3270B1
:1033E000180007B03CBC90469946A246AB46F0BDDB
:1033F00062462A2A00D1F8E0250000246246A14650
:10340000A1E700220270EBE72500049A1768141D5B
:10341000A446002F00D1FBE03A78002A00D106E153
:103420003A0001321478002CFBD1D41B4A46002A02
:1034300002DD4C4500DDCDE0CA060DD45A1E9C428B
:1034400000DBF6E020221B1BC318864200D9027065
:1034500001309842F9D1631E002C00DCDFE0011935
:10346000864201D93A780270013001378842F7D19B
:10347000181B081820229C4200DBD2E08E4200D9A3
:103480000A7001318142F9D163466A7804932C00B5
:1034900009E725005A1C00D1B6E0049A141D1268F1
:1034A000029149460093019110233100FFF72EFD50
:1034B0006A7804942C00F6E62500864201D925237B
:1034C000037001306A782C00EDE62500CA060BD4A3
:1034D000013B002B08DD2022C318864200D9027070
:1034E00001309842F9D10023049A141DB0425BD3F5
:1034F000421C9446C0182021012B00DC8AE0964231
:1035000000D9117001328242F9D1013B63446A78DB
:10351000180004942C00C6E600222C0010256C2A0A
:1035200001D0682A27D0049F3A6804370497029193
:103530004946009301912B003100FFF7E7FC6278C8
:10354000B1E600222C000A25E9E7002240242143AD
:10355000E3E72C000825E6E70022022421432C00A3
:103560000A25DCE7049BA51C1A1D1B68002B38DB11
:10357000A4780492E1E6049A171DBC4612688F07EE
:1035800003D5674612B20497D1E767461204120CBE
:103590000497CCE72500E0E70825C0E72500D5E73C
:1035A0002500CFE72500B8E712680270A0E794462F
:1035B000864203D9252303702B789C466246431C20
:1035C000002A00D101E79E4200D9427002306A7899
:1035D0002C0068E64C46CA0600D53DE72EE72500DC
:1035E000E6E710275B423943C2E7049A02351268C6
:1035F000D4431700E4172740049C2A780434B946C2
:103600000494A0E60023E3E602331943073344E7BA
:103610000B4F01E704946A782C00604643E60100F2
:1036200026E763466A7804932C0008003BE60024F2
:10363000FCE6130010E7C046CC2301081C25010856
:103640006C2601080EB4012100B582B003AB04CB97
:1036500049420193FFF70CFE02B008BC03B01847C3
:1036600003000020002B0FD0FF210A001A400CD1CC
:10367000FF221202134213D1FF221204134208D177
:103680000A4A1B0ED05C19307047084B985C013019
:10369000FAE718140B00054A0340D05C1130F3E739
:1036A0001B12024A0B40D05C0930EDE7742601087A
:1036B000164B30B51A684368D318984210D0598811
:1036C00000290DD1124909688B4209D011490C68B3
:1036D000A34218D0596841605B68811AD318996079
:1036E0008168531898420BD05C88002C08D1094C93
:1036F0002568A84205D044685C604368D218916090
:1037000030BD2360F7E70860E4E7C046B40E002050
:103710008C0E0020800E0020032310B59943182939
:1037200005D9033098430B00183B984200D910BDCF
:10373000091A0A000F4B183A1A60F52300220E4CA2
:103740000C395B0103804160826042802060401838
:1037500003800123094A4380106041608160002397
:10376000012207490748FFF7E3F92268064B1A6070
:10377000DDE7C0467C0E0020B40E00208C0E002039
:103780009C270108900E0020800E0020F0B55F46B7
:1037900056464D464446F0B483B0002800D180E040
:1037A00003234E4C0330984323680500984200D908
:1037B00077E00B2830D9012149484942FFF7C8F981
:1037C000484B22689B461B6890469946464B561BC1
:1037D00018689A464B461B1AB34212D2AC463500C3
:1037E00008E06168CF1A3E000C3EB44516D90B00C4
:1037F0009D4206D9C4186288002AF2D063689D42AF
:10380000F8D83748FFF71EFA002003B03CBC9046BA
:103810009946A246AB46F0BD0C25CCE76546B446BA
:103820002E0018360192B4452FD3F5220C3EF7181E
:10383000C619520132806A46B360012392887160D2
:10384000728063804346676072680C339A4201D08D
:1038500080188760254A13680C335B191360244A6B
:1038600011688B421BD8F5235B012380A1451DD035
:103870001B48FFF7E7F91F4B1B68002B13D00C34D4
:103880002000290098472000BFE70123174A6380E2
:103890001368FB181360164A11688B42E3D9136052
:1038A000E1E70020B1E70C342000AEE74B465B882F
:1038B000002BDDD0104B1A689145D9D053461968BA
:1038C0004B4601E0934204D05B68CB18588800282F
:1038D000F8D199465B464A461A60C9E77C0E00203B
:1038E000900E0020800E0020B40E0020840E0020D8
:1038F000B80E0020880E00208C0E002070B5041E2B
:103900000CD0174B1B68002B00D09847154D2B6827
:103910009C4203D3144B1B689C4200D370BD012111
:10392000124E49423000FFF713F900230C3C63802C
:10393000F5235B0123800E4B1A68944200D21C6071
:103940000C4862680368991A2A68A31ACB180360A6
:103950002000FFF7ADFE3000FFF774F9DEE7C04648
:10396000B00E0020B40E00208C0E0020900E00201F
:10397000800E0020840E0020F0B5574645464E4686
:103980000323E0B4374FCC1C9C433B6805009C42AA
:1039900048D8002C62D000285AD00121324E49422A
:1039A0003000FFF7D5F8314B1B689D4231D3304AC8
:1039B000126895422DD229000C39CA1A94466046E5
:1039C0004A6891460C3A121A9046944221D022003D
:1039D0001832904528D9274A404692461268A218C4
:1039E000121A50460260F52264440C341819520130
:1039F0000280002242804A464260624682604C60F9
:103A0000396842680C318A4201D09B189C60FFF7EC
:103A10004FFE3000FFF716F928001CBC904699466F
:103A2000A246F0BD0020F8E73000FFF70BF92000B8
:103A3000FFF7ACFE061EF5D0220044450CD8290045
:103A40003000FFF7A5FB2800FFF758FF3000E4E740
:103A50002000FFF79BFEE0E74246F0E7FFF74EFF4E
:103A60000020DAE77C0E0020900E0020B40E00202B
:103A70008C0E0020840E0020002310B5054C1A0186
:103A8000A15C814204D00133092BF8D1002010BD84
:103A9000A018FCE700000020F0B547460E0080B4F7
:103AA0009046070000231B4D1A01A95CB14207D0C4
:103AB0000133092BF8D100F0CFF900235B68FFDE5A
:103AC000AD1800F0C9F96C682B1DA34202D0246820
:103AD000A342FCD100F0CCF980235B421E433E722E
:103AE000082241463800FFF789FB0B4B1B68002B6F
:103AF00001D038009847FCF715FB3B006A680C338F
:103B00005360FA606B603C61FCF710FB04BC9046AC
:103B1000F0BDC04600000020BC0E00200B4B10B5CD
:103B20001B680400002B00D0984700232372FCF789
:103B3000F9FA23002169E2680C33516021690A60B7
:103B40002361E360FCF7F2FA10BDC046C00E00200E
:103B5000F8B54F4646468946C0B4002307001D4EBF
:103B60001C01325DBA4205D00133092BF8D1002384
:103B7000DB68FFDE3319D8689846FFF707FE051E9D
:103B800026D043460021DA68FFF7C8FA00232F72D7
:103B90006B72082249462800FFF730FB0E4B1B686A
:103BA000002B01D028009847FCF7BCFA42462B00B6
:103BB00052680C335360EA6042463419043453604F
:103BC0002C61FCF7B3FA28000CBC90469946F8BD6E
:103BD0000020F9E700000020BC0E00200C4B10B5BF
:103BE0001B680400002B00D0984700232372FCF7C9
:103BF00099FA2300E26821690C33516021690A6057
:103C00002361E360FCF792FA2000FFF777FE10BD16
:103C1000C00E0020007A40B2C00F70470022084B4F
:103C20001A80084B5A1CFF325B601B6008339342BA
:103C3000FAD10022044B1A60044B5B601B60704792
:103C4000C40E002010270020182800201C28002067
:103C500010B50400FCF766FA134B1B68A3421AD098
:103C600034210722635C93430122134363543523B9
:103C70002200E35C0D49DB00CB18596814320A605E
:103C8000A1615A600A4A63611168A36B0B43136018
:103C9000FCF74CFA10BD342407211A5D8A43032136
:103CA0000A431A55F4E7C0461428002010270020C4
:103CB0001828002010B50400FCF734FA23006269CC
:103CC000A16914335160A1690A606361A36135235E
:103CD000E35C074ADB0099189B588B4202D0FCF743
:103CE00025FA10BD034AA36B116899431160F6E7EA
:103CF00010270020182800200B4B70B51868FFF71C
:103D0000AFFC0A4B0138C000C458094B2500143DD4
:103D100028001D60FFF7CEFF032234232000EA5461
:103D20000830FCF73EFA70BD18280020102700204C
:103D300014280020F8B54F464646C0B4FCF7F2F907
:103D40003E4B040000229B5E002B03D13C4B1868C5
:103D5000002806D12000FCF7E9F90CBC90469946F2
:103D6000F8BDFFF77DFC374B0138C200D758364B02
:103D70003D001E68984634230021F25C2D3B143D23
:103D800013408946032B25D0AE424AD02F4B1870E2
:103D900043461D602E4B1B68002B02D029003000CB
:103DA00098474B46002B36D12800FFF783FF34217C
:103DB00007226B5C9343032213436B54AB6A1A785C
:103DC000232A02D1EA699A4210D8FCF7ABF90028FD
:103DD00010D0FEE73233F35C834222D31FD0082396
:103DE0009A432C33F254333B9946CDE7E96A5B188A
:103DF0009A42EAD839003000164B08311B781C3043
:103E0000002B02D0FCF795F9A4E7FCF792F920000B
:103E1000FCF78CF9A1E73000FFF71AFFC4E713079E
:103E2000DDD43000FFF746FF4346342107221868EF
:103E3000435C93430322134343548BE7C40E002097
:103E40001828002010270020142800201028002007
:103E5000C80E0020740E002010B5FCF763F9034A69
:103E6000138801331380FCF761F910BDC40E0020E4
:103E700010B5FCF757F90A4A1388013B1BB21380AF
:103E8000002B02DDFCF752F910BD00231380FCF774
:103E90004DF9044B1B68002BF6D0FFF74BFFF3E7FF
:103EA000C40E002014280020144B70B51C68FCF7C9
:103EB00039F905002000FFF7FDFE0422342320001D
:103EC000E2544C3000F0D2F92000FFF7A3FE0128A5
:103ED0000DD022000A4B143219681A604A606161E1
:103EE000A361FFF727FF2800FCF720F970BDA36F3F
:103EF000002BEED12000FFF711FEF2E7142800207E
:103F00001C28002002235B4203630300816942698D
:103F100010B55160816914330A6083614361FFF712
:103F200097FEFFF707FF10BDF0B50400170083B040
:103F300008AD04CD1430A06160612162A362E26229
:103F40002321180067622E780A9DFFF7E7F8E36ADD
:103F5000616A1A1FA36A206A9C46124B624400F0F1
:103F60005FFB3623E061E654013BE6543422002334
:103F70002000A36323636564A5640193A3540093A5
:103F8000A367E3674C302300074A210000F050F993
:103F9000064B1B68002B01D020009847002003B07F
:103FA000F0BDC046A93E0008053F0008D40E002021
:103FB000F0B5040015001E0085B00CAB0A0001210D
:103FC0001F78FFF769FD0D9B019702930B9B320051
:103FD000009329000A9B2000FFF7A6FF05B0F0BD63
:103FE000014B18687047C04614280020F0B54746BA
:103FF00080B484B01D000AAB1B780E0001000120C4
:1040000017009846FFF7A4FD041E14D02800FFF700
:10401000BDFB002811D00B9B0095029343463A004C
:104020000193310003002000FFF77EFF200004B061
:1040300004BC9046F0BD0020F9E72000FFF7CEFD5C
:104040000020F4E7342310B5C35C04005B0701D003
:10405000FFF730FE20004C3000F008F9FCF762F862
:1040600004223423E2542200054B143219684A60BA
:104070006161A3611A60FCF759F8002010BDC046C9
:104080001C28002010B5FFF755FE002010BDC046CB
:1040900070B534250522435D04001340012B02D086
:1040A0000120404270BDFCF73DF806002000FFF7FC
:1040B00001FE0722635D20009343022213436355F0
:1040C0004C3000F065F93000FCF730F8044B1B6809
:1040D000002B03D0200098470020E3E70020E1E711
:1040E000CC0E002070B5104B82B01C680190FCF71C
:1040F00019F8250006004C352000FFF7C9FF01AA7A
:104100000021280000F066F9280000F0DDF83000FA
:10411000FCF70CF8FFF70EFE236B023301D10023EE
:104120002363002002B070BD1428002010B5FFF7F3
:10413000D9FF10BD10B5FEF7B9FBFFF7D3FF10BDD7
:104140003423072270B5C35C04001340022B1DD139
:10415000FBF7E8FF6369A26905005A60A2692000C5
:10416000136023001433A36163614C3000F010F935
:104170002800FBF7DBFF2000FFF76AFD064B1B68FA
:10418000002B06D020009847002070BD012040423F
:10419000FBE70020F9E7C046D00E0020362310B51B
:1041A000C25C013BC254343B9340022283633423FC
:1041B000C254FFF7C5FF044B1B68002B01D0FFF76B
:1041C000B9FD002010BDC04614280020F8B5040039
:1041D000150001291DD0022907D00020002900D098
:1041E000F8BD2000FFF7DAFFFAE7FBF79BFF342367
:1041F0000726E35C07001E40012E0DD035232A78E8
:10420000E254343B9340A3633800FBF78FFF002058
:10421000E6E7FFF717FFE3E72000FFF74BFD2B78FA
:1042200035229E40A3542000A663FFF711FDEBE763
:10423000F0B5474680B41F0006AB40CB90460A005D
:104240000A2104001D78FFF727FC01239D43434604
:10425000E3610023A3622300143365722762666260
:10426000A361636104BC9046F0BDC04610B5040074
:10427000FBF758FF23006269A16914335160A169FB
:104280000A60A3616361FBF751FF2000FFF746FC62
:10429000002010BDF8B50F001D00010006AB0A207C
:1042A00016001C78FFF754FC00280BD001239C4318
:1042B00000238362030014334472C76106624562BF
:1042C00083614361F8BDC046F8B50500FBF72AFFDE
:1042D0006B69AA692E005A60AA691436136001221C
:1042E0006B7AAE6193436B726E61FBF71FFF224BDB
:1042F0001B68002B01D028009847FEF7B7FA6B6ABD
:104300009C466044A862FBF70DFF6B7A84465B070E
:104310002BD51A4A57681A48116897420AD04B6938
:10432000AC6AA34202D01B1B834203D90A00116866
:104330009742F4D113484E6003686961013303600A
:1043400001231660AA616A7A604613436B72FBF719
:10435000EDFE6B7A5B0706D5342307220A48C35C5F
:104360001340022B03D00020F8BD084AD2E7FFF724
:10437000E7FEFFF7DFFCF6E7082700206C130020BC
:10438000FEFFFF7F60130020E0120020D80E002007
:1043900010B5437A0400DB0717D50D4B1B68002BC3
:1043A00000D09847FBF7BEFE23006269A169143371
:1043B0005160A1690A60A3616361FBF7B7FE012246
:1043C0000020637A9343637210BD01204042FBE7F3
:1043D00004270020012913D00DDD022907D003296D
:1043E00003D10223427A1343437200207047437A79
:1043F0008B434372F9E70029F7D113684362F4E76E
:10440000436A1360F1E7C046F8B55F4656464D462D
:104410004446F0B4FEF72AFA0700FBF783FE224B6E
:1044200083469846214B224E9A46224B9946356840
:10443000B54228D02C00143CA36AFF1A474522D865
:1044400053461B68002B01D0200098476369A2697E
:10445000206A5A60A2691360E369A56165619847A3
:10446000FEF704FA4B461B680700002B01D0200022
:104470009847637ADA4392070ED00122934363721E
:104480003568B542D6D15846FBF750FE3CBC904645
:104490009946A246AB46F8BD0122934363722000C1
:1044A000FFF712FFC3E7C046FEFFFF7F681300203F
:1044B000D80E002064130020F0B55F464D464446F8
:1044C0005646F0B483B0FEF7D1F90500FFF7C4FCFF
:1044D0002A4B1F6898469F4247D03C00143CA36A71
:1044E0002600ED1A264B9D423FD8264A019393465B
:1044F000254A9246032291460DE0012293436372BE
:10450000454532D02E00143EB36AFF1A019B9F42EC
:104510002BD82F0034005B461B68002B01D03000E5
:1045200098473D68A3696B60A3691D60A7616761D7
:10453000FFF79EFCE369206A9847FEF797F9534618
:104540001B680700002B01D030009847FFF784FC60
:104550004A46637A1A40032ACFD1023A93436372E0
:104560003000FFF7B1FE4545CCD1FFF781FC03B029
:104570003CBC90469946A246AB46F0BD6C13002069
:10458000FEFFFF7F681300206413002070B50D4DFF
:104590000D4E01E0FFF790FF2B68AB420AD05C693B
:1045A000631C07D0FEF762F9201AB042F2D8FFF779
:1045B000BDFDEFE7FFF714FDFFF76AFDFFF7BAFB5C
:1045C000E8E7C0466C130020FEFFFF7F014B5B60F5
:1045D0001B607047D80E00200C4B10B55B601B6051
:1045E0000A2384B00393063B02938023DB00084C2C
:1045F0000193084B084A0093084900232000FFF765
:10460000D7FC2000FFF7CAFD04B010BD6C130020DA
:10461000E0120020E00E00208D450008A4270108CC
:1046200070B50600072004328243100040380400B1
:10463000074D20C49442FCD14363802300225B04D5
:104640008663016242628262C2620263C36370BDBA
:10465000EFBEADDEFEE7C0460020704710B5FFF7A5
:104660004DF910BD10B504000800FFF78FF80028C1
:1046700000D010BD0C232360FBE7C04610B504003A
:1046800008001100FFF778F9002800D010BD0C23B6
:104690002360FBE710B50800FFF730F910BDC046F6
:1046A000036C10B51B68002B01D0984710BD062085
:1046B0004042FBE700207047036C10B55B680022A6
:1046C00006219847431E9841404210BD10B5036C27
:1046D0005B68984710BDC04670B51224047500246D
:1046E000084DC4614562084D046285620463074D4C
:1046F0004463074CC5628463C36392B2FEF78EF9CC
:1047000070BDC046A1460008B5460008B94600087D
:10471000CD460008F8B504000E00170000F0F4F8CC
:10472000051E0AD12000002248303100FEF7ACFA05
:10473000012240236764E566E2542800F8BDC046C4
:1047400070B5040010000D001E00FEF739F90028B6
:1047500013D0037D0B2B10D120642900200000F022
:10476000EBF8051E01D0280070BD2000082244305F
:104770000021FEF7D3FCE663F5E701256D42F2E781
:10478000452310B54A780400C25407220B78134021
:104790003D3283544B688364006C00280DD00121A6
:1047A00048304942FEF786FA002806D1206CC36ED5
:1047B0009C4204D04830FEF723FB002010BD2100AE
:1047C000436C44311B6820009847206CF2E7C046D8
:1047D000F0B50F0001210400006C87B04830494259
:1047E00016001D00FEF766FA002826D1236CDA6E4B
:1047F000944209D021005B6C44311B68200098472B
:10480000002820D1236CDC66012201A9087C5B6CA6
:104810000243022002430A7400228D6001974E6019
:10482000CA605B6820009847051E12D0206C483093
:10483000FEF7E6FA280007B0F0BD08204042FEF778
:104840005BFC0025F6E708204042FEF755FC0025FA
:10485000ECE708204042FEF74FFCE7E7012110B5E6
:104860000400006C49424830FEF724FA002813D1B6
:104870000020FEF741FC236CDA6E94420AD021003E
:104880005B6C44311B682000984700280BD1236CD7
:10489000DC6610BD0020FCE707204042FEF72CFC40
:1048A00007204042F5E708204042FEF725FC206C37
:1048B0004830FEF7A5FA08204042EAE710B5006C40
:1048C0004830FEF79DFA002010BDC046002070471A
:1048D00010B51100C06E0022FFF77AFF10BDC04670
:1048E00010B5C06E0021FFF773FF10BD10B51100A9
:1048F0000022FFF76DFF10BD10B50021FFF768FF24
:1049000010BDC046002070470B2310B5037500236F
:1049100043628362C362054B03220363044B436318
:10492000044B8363FEF77AF810BDC046E1480008E7
:10493000D1480008054900080C2310B50375002371
:1049400043628362C362054B03220363044B4363E8
:10495000044B8363FEF762F810BDC046F9480008B7
:10496000ED480008CD48000810B5002A07D0036CB8
:10497000548811881B6822009847002010BD012030
:104980004042FBE710B514000022002C01D0042B9C
:1049900001D0100010BD036C21889B689847042249
:1049A0006080F6E710B50021002A01D0042B01D069
:1049B000080010BD5488036C11885B68220098477A
:1049C0000421F5E710B512240B4B1C750024DC61A3
:1049D0001C625C629C62DC62084C19641C63084CBB
:1049E000DA635C63074C0100032218009C63FEF746
:1049F00015F8002010BDC04674130020854900083A
:104A0000A54900086949000870B5084D06002C6CDE
:104A100082B0E4680620002C05D000932800130023
:104A20000A003100A04702B070BDC04674130020D8
:104A300070B5064D2B6C5C690623002C04D00A006F
:104A400001002800A0470300180070BD7413002067
:104A500010B5044B0A00196C0C6801001800A0473F
:104A600010BDC0467413002010B5044B0A00196C29
:104A70004C6801001800A04710BDC0467413002008
:104A800010B501000248026C9268904710BDC04604
:104A9000741300207047C0464023084A10B51168BF
:104AA00000200B43136002F001F90123002802D11A
:104AB000FFF7F0FF0023180010BDC04600200240A1
:104AC000024A1368013313607047C0463028002043
:104AD00070B5002814DB032483082040FC34260032
:104AE000134AC0259446C000890186402140814078
:104AF0009B006344AD005A59B2431143595170BDF4
:104B000003240F23C0B203402040FC342500094A8F
:104B1000C00094468901854021408140083B9B08A4
:104B20009B006344DA69AA431143D961E7E7C046B1
:104B300000E100E000ED00E01F2318401E3B834031
:104B4000014A13607047C04600E100E01F2318408F
:104B50001E3B8340802201498B50704700E100E0FA
:104B60000A4A431E012093420ED8C020084A094930
:104B700053600B6A00061B021B0A03430B620023EF
:104B800000209360073313607047C046FFFFFF00AB
:104B900010E000E000ED00E0042805D00421054A03
:104BA00013688B4313607047024B1A6810431860F8
:104BB000F9E7C04610E000E070B5041E38D0056883
:104BC0001C4B1421E818FBF763FB1B4B02222364E8
:104BD000252380006064E2542A68184BA1681A40BB
:104BE000E36826690B43334366693343A66933435D
:104BF000E6693343266A334313432B608023DB018A
:104C000099420CD01C2108400D3981400C4B1A6888
:104C10008A431A6061681A6881400A431A60002357
:104C2000252201210020E363A154013AA35470BD61
:104C30000120FCE7F8FFFDBF000002400F80FFFFEE
:104C4000A8000240F0B52424055D83B00226012DA2
:104C500008D0012525270555C55DEDB2012D04D0ED
:104C600000230355300003B0F0BD0024C655C463D3
:104C70000468093F2668AE432660066C0196466CC0
:104C80003740BD40019E756063608368102B0ED075
:104C9000A160E260036B002B0CD00E23226813434B
:104CA000236001232268002613432360DAE7A26011
:104CB000E160EFE704222368934323600A2322681C
:104CC00013432360EDE7C046F0B544465F465646C1
:104CD0004D46F0B48846096883B0002400230029BB
:104CE00000D1B2E001229346664A8A4694466BE0C0
:104CF000013E012E00D888E00326A640F643056851
:104D000035402F0003251540A5403D430560C5688B
:104D10002E404546AD68A5402E4380256D05C660F2
:104D20002A424CD0584903274D6B59460D435649EA
:104D30001F404D6355499D088946B9000F27AD00B6
:104D40004D448F408946A021AE68C905BE438842C4
:104D500000D181E04E4FB84200D17FE04D4FB842C4
:104D600000D17FE04C4FB84200D17FE04B4FB842BA
:104D700000D17FE04A4FB84200D17FE00627494684
:104D80008F4061463E43AE600D680099CE43D1032B
:104D900058D4354061460D604D6891034FD435407D
:104DA00061464D608D68D10246D4354061468D60C4
:104DB000CD6892023DD4290031406246D16052460E
:104DC00001330234DA4040D05D4651469D402940CF
:104DD0000091F4D04246526810271600BE43022EBE
:104DE00086D1DE08B60081190191096A093F89461A
:104DF0000F211F40BF00B9404E468E43414609690E
:104E0000B9400F00019937430F6203264146A6407F
:104E1000C968F643A140876837400F435946876009
:104E20004768AF433D0017090F409F403D43456031
:104E300065E700992943C0E700990D43B6E700995B
:104E40000D43ADE700990D43A4E703B03CBC904689
:104E50009946A246AB46F0BD002792E75F46494619
:104E60008F408EE7022749468F408AE7032749464D
:104E70008F4086E7042749468F4082E70527494649
:104E80008F407EE700040140001002400000014016
:104E90000004005000080050000C005000100050AA
:104EA000001C0050F0B55F4656464D464446F0B4EF
:104EB000002383B000296DD001229446023290462F
:104EC0000C32914603E00A000133DA4062D06646B4
:104ED0009E4035000D40F6D047465C00A740026872
:104EE000DC083A43A40002600419BA46276A019715
:104EF00007271F40BF00BB464F465A4697403A001F
:104F0000019F97435246D243276284684F4614401C
:104F100084604468B4434460C46822402C4CC2603E
:104F2000A24644461C40A400A7409A08920052445E
:104F30009668BA463E40A027FF05B84231D0254FBB
:104F4000B84230D0244FB84231D0244FB84232D08A
:104F5000234FB84233D0234FB84234D00627A7405E
:104F60003C00A642AFD15646ED4394680133B443AA
:104F700094601D4A1C4C12682A40226062682A40D4
:104F80006260A2682A40A260E26815400A00E560FB
:104F9000DA409CD103B03CBC90469946A246AB4651
:104FA000F0BD0024DDE76746A7403C00D9E70227B3
:104FB000A7403C00D5E74746A7403C00D1E704277F
:104FC000A7403C00CDE70527A7403C00C9E7C04605
:104FD000000001400004005000080050000C005088
:104FE00000100050001C00500004014000690840FF
:104FF000411E8841C0B27047002A01D181627047CA
:105000008161FCE7044B10B55A69104202D0586127
:1050100002F038F810BDC0460004014070B5041E0F
:105020001ED00368114A1A60114A1A6042685A6019
:1050300082689A6001F030FE050004E001F02CFE69
:10504000401B30280AD82368DA68002AF6D119698B
:10505000E268914206D000201A6170BD0320FCE78F
:105060000120FAE7034A00201A60F6E7CCCC0000E2
:1050700055550000AAAA00000368024A00201A60E1
:105080007047C046AAAA00008021034A490013685D
:105090000B4313607047C046007000400C231B4A4E
:1050A00010B5D1680B40082B22D00C2B0ED0042B4E
:1050B00007D08020536800021B045B0F0133984027
:1050C00010BD1368DB0615D51148F9E78B021148AE
:1050D0001B0FC45C0902D368890F0131DB030BD4B9
:1050E0001368DB060DD50A486043FBF7D1F8E7E704
:1050F0000948E5E70948E3E707486043FBF7C8F8D4
:10510000DEE706486043FBF7C3F8D9E7001002402A
:1051100000093D00C427010800127A000024F400B1
:10512000F0B557464E464546E0B4040082B000282C
:1051300000D129E10C25C94BDA68DE6815408022D0
:10514000036852021640D90733D5082D00D112E169
:105150000C2D00D10CE1802362685B029A4200D1E1
:1051600024E2A021C9028A4200D1C0E1BB4FBC4960
:1051700038680140396039680B400193019B3968F8
:10518000B84B0B403B60002A00D0B9E101F084FD30
:1051900080239B028146984606E001F07DFD4B4648
:1051A000C01A642800D9EAE142463B681342F4D1B0
:1051B00023689A072BD52022E3681A4200D0EAE040
:1051C000042D00D1EFE00C2D00D18CE1A34E002B7B
:1051D00000D138E10921326804278A431343336040
:1051E00001F05AFD804606E001F056FD4346C01A24
:1051F000022800D9C3E13368984A1F42F4D02169DC
:105200005368080298490B40034353602368DA0649
:105210002BD5002D00D1EDE0E369904E002B00D19D
:10522000C9E18022336852001343336001F034FD3A
:1052300080278046BF0006E001F02EFD4346C01ADD
:10524000022800D99BE13368844A3B42F4D051687C
:10525000864B0B40616A0B4353605368216A1B0203
:1052600009061B0A0B43536023681A0719D56369A3
:105270007A4E002B00D184E10123326D1343336554
:1052800001F00AFD02230700984605E001F004FD45
:10529000C01B022800D972E14246336D1A42F5D094
:1052A00023685A0742D5802200206C4B5205996B27
:1052B0008246114204D1996B0A439A6301239A46AC
:1052C00080276B4E7F0033683B4200D147E180224C
:1052D000A3685200934200D1A3E1002B00D123E147
:1052E000A021C9008B4200D1F4E15C4B614A196DE9
:1052F0000A401A65196D604A0A401A6501F0CCFC33
:1053000080265E4B8146554FB600984606E001F078
:10531000C3FC4B46C01A404500D930E13B6D3342D7
:10532000F5D05346012B00D174E123689B0600D5CC
:10533000B7E0A36A002B19D00C2D00D176E1022B27
:1053400000D190E1454C4E4B2268802513402360EC
:1053500001F0A2FCAD04060005E001F09DFC801BFD
:10536000022800D90BE123682B42F6D100200CE083
:10537000964200D0EFE6394A1268920300D418E74B
:105380006268002A00D014E7012002B01CBC9046DD
:105390009946A246F0BD314893430168114301602C
:1053A000042D00D00FE72D4A1268520701D5002BBB
:1053B000EAD02A4E2169726808022B490A40092165
:1053C0000243726032688A4313433360FFF766FE1C
:1053D000F3682C4A1B061B0FD35CD8402A4B18607D
:1053E000002001F063FC0028CFD12368DA0600D446
:1053F0003BE70EE7194B1B689B0502D5E369002BC1
:10540000C2D01649194B4868626A034013434B6087
:105410004B68206A1B0200061B0A03434B60802373
:10542000520B01321B029340C96800200A0615493D
:10543000120F8A5CD340144A136001F037FC002835
:10544000A3D1236811E7012233689343336001F04D
:1054500023FC0423070098461DE0C04600100240CC
:10546000FFFFFEFFFFFFFBFFFFE0FFFFFF1FFFFF50
:1054700000700040FFFEFFFFFFFBFFFF88130000EE
:10548000FFFFFFFEAC2701089000002001F004FCA4
:10549000C01B022873D8424633681A42F6D12368EB
:1054A000A4E7A369904E002B00D19AE0012380214C
:1054B000B26889011A43B260726B13438B4A7363FB
:1054C000136A0B43136201F0E7FB022307009846BF
:1054D00004E001F0E1FBC01B022850D84246B3684B
:1054E0001A42F6D025E7002E00D06FE65BE7802059
:1054F0007D4AC00211680143116011680B431360BB
:1055000001F0CAFB8027784B81469846BF0205E030
:1055100001F0C2FB4B46C01A642830D843461B68D2
:105520003B42F5D0236844E66F4E714B326D8027C5
:1055300013403365326D6F4BBF001340336501F08C
:10554000ABFB6D4B8146984605E001F0A5FB4B4651
:10555000C01A404513D8336D3B42F6D1E1E63368BB
:105560003B43336001F098FB804633683B4200D0F8
:10557000ADE601F091FB4346C01A6428F5D903203B
:1055800003E70122336D9343336501F085FB02236A
:105590000700984604E001F07FFBC01B0228EED80C
:1055A0004246336D1A42F6D123687AE64E490B68BB
:1055B0001A430A60A4E732684D4B1340336001F090
:1055C0006BFB80239B000700984604E001F064FB1E
:1055D000C01B0228D3D8424633681342F6D1236851
:1055E00043E60122B3689343404AB360116A434BD8
:1055F0000B40136201F050FB02230700984604E0C1
:1056000001F04AFBC01B0228B9D84246B3681A42CF
:10561000F6D18EE6344A3A4B916B0B409363236884
:1056200084E631490A6D13430B6567E6012B00D10F
:10563000AAE680222C4B5202D968E36A0A40012074
:105640009A4200D0A1E6F023226B9B030B409342C9
:1056500000D09AE6C023606B1B040B40181A431E4F
:105660009841C0B291E6204E264B32681340336019
:1056700001F012FB80239B040700984605E001F02F
:105680000BFBC01B022800D979E742463368164D50
:105690001342F4D1226BE16AEB681143626B802400
:1056A0001143194AA404134080220B43EB602B687A
:1056B000520413432B6001F0EFFA060005E001F0FD
:1056C000EBFA801B022800D959E72B682342F6D059
:1056D00000205AE68020044BC000196D0143196573
:1056E000196D0A431A6509E60010024000000140E6
:1056F000FFFEFFFFFFFBFFFF88130000FFDFFFFF40
:10570000FFFFFFEFFFFFFFFEFFFF02FFF8B54F4671
:1057100046460400C0B40D0000280DD00121584AAF
:1057200013680B40AB420CD213688B432B431360BE
:10573000136819408D4204D001200CBC9046994654
:10574000F8BD23689A0706D5F0204E49CA688243FF
:10575000A0680243CA60DB0728D54A4A636812681A
:10576000022B57D0032B50D0012B66D09205E3D5E6
:105770000321444EF2688A431343F36001F08CFA2C
:1057800063680700022B48D0032B59D0012B67D048
:105790000C2398463C4B994604E001F07DFAC01B6F
:1057A000484535D84246F3681A42F6D10121344AB9
:1057B00013680B409D4205D213688B431360136836
:1057C0001942B9D123685A0706D52E492F4AC8680D
:1057D0000240E0680243CA601B0707D529482169D7
:1057E000C3682B4AC90013400B43C360FFF756FC44
:1057F000244B284ADB681B061B0FD35CD840264B82
:105800001860002001F052FA97E79201B0D493E7B4
:10581000032092E79203ABD48EE70A3398461A4BE3
:10582000994604E001F038FAC01B4845F0D84246DA
:10583000F3681340082BF5D1B8E7520798D47BE7FB
:1058400009339846104B994604E001F025FAC01B35
:105850004845DDD84246F36813400C2BF5D1A5E747
:105860000B339846084B994604E001F015FAC01B2B
:105870004845CDD84246F3681340042BF5D195E74F
:10588000002002400010024088130000FFF8FFFFD4
:10589000FFC7FFFFAC27010890000020014B1868EC
:1058A0007047C04690000020044B054ADB689B040B
:1058B0005B0FD35C034A1068D84070470010024069
:1058C000BC27010890000020F8B54F464646036803
:1058D000C0B404009A062FD580220020704B5205D8
:1058E000996B8046114204D1996B0A439A63012354
:1058F000984680266B4D76002B68334261D06168F4
:10590000C0230E00664D9B032A681E401340B3421D
:1059100000D19AE0C0220B0092021340934200D1C2
:105920009DE0286D024062D15D490A6D13430B650D
:105930004346012B55D02368DA0706D50320584982
:10594000CA6C8243A0680243CA649A0706D50C2039
:105950005349CA6C8243E0680243CA645A0706D5B9
:105960004F49514AC86C024020690243CA641A0771
:1059700006D54B494D4AC86C024060690243CA646F
:10598000DA0506D546494A4AC86C0240A069024376
:10599000CA645A060DD400201B0606D54049454B63
:1059A000CA6C1340E2691343CB640CBC9046994621
:1059B000F8BD3B49404AC86C0240206A0243CA64B1
:1059C000E9E72B6833432B6001F066F9070004E038
:1059D00001F062F9C01B64284BD82B683342F7D022
:1059E0008DE78A6B354B13408B632368A4E79342A2
:1059F0009AD0226892060FD58027294D3F032E6D3D
:105A0000286D2B4A384328652F6D2D483240384089
:105A100028652A65F2052ED4C0229202934200D056
:105A200082E7C026B6030E401D4A264B11680B4084
:105A30001E43C0231A4916600A6D9B0213430B656F
:105A40004346012B00D076E7CBE7C0232A6D9B02AB
:105A50001A400B40002ADFD09A42CAD1DCE72A68FC
:105A600001209203A1D42A6D1A40DDD09A42C0D100
:105A7000D7E7032099E701F00FF98026124B0700C2
:105A8000B600994604E001F007F9C01B4845F0D87C
:105A90002B6D3342F7D0C02361689B020B40BBE7FC
:105AA0000010024000700040FFF3FFFFFFCFFFFF38
:105AB000FFFFFCFFFFFFF3FFFFFFFFFBFFFFFFEF19
:105AC000FFFFF7FFFFFFCFFF881300007047C046BE
:105AD0000068F0B5836A47464B60036900685B0461
